{
  "transactions": [
    {
      "hash": "0xa4e42d1142d7c4d648cb4ea35cee0ce058bcf91d7527c53440a82f2a45749fe0",
      "transactionType": "CALL",
      "contractName": null,
      "contractAddress": "0x4c84ebbcf4f4498345374304e58939544f7e73b9",
      "function": "approve(address,uint256)",
      "arguments": [
        "0x46f2eA3853290e7eD4ebD5Dc80CeBCDF9697D6CB",
        "1000000000000000000"
      ],
      "transaction": {
        "from": "0x46f2ea3853290e7ed4ebd5dc80cebcdf9697d6cb",
        "to": "0x4c84ebbcf4f4498345374304e58939544f7e73b9",
        "gas": "0x107cf",
        "value": "0x0",
        "input": "0x095ea7b300000000000000000000000046f2ea3853290e7ed4ebd5dc80cebcdf9697d6cb0000000000000000000000000000000000000000000000000de0b6b3a7640000",
        "nonce": "0xb",
        "chainId": "0xaa36a7"
      },
      "additionalContracts": [],
      "isFixedGasLimit": false
    },
    {
      "hash": "0x86e89dd4b544183d7613a9896baeea3dd308ef72a3af67c818e13ab81d07e3ba",
      "transactionType": "CALL",
      "contractName": null,
      "contractAddress": "0x7d227b4c2b05528dcf993c0fd2c631f82ecac383",
      "function": "buy(uint256)",
      "arguments": [
        "441711766194596082395824375185729628956870974218904739530401550323154944"
      ],
      "transaction": {
        "from": "0x46f2ea3853290e7ed4ebd5dc80cebcdf9697d6cb",
        "to": "0x7d227b4c2b05528dcf993c0fd2c631f82ecac383",
        "gas": "0x14d98",
        "value": "0x0",
        "input": "0xd96a094a0000400000000000000000000000000000000000000000000000000000000000",
        "nonce": "0xc",
        "chainId": "0xaa36a7"
      },
      "additionalContracts": [],
      "isFixedGasLimit": false
    },
    {
      "hash": "0xa8db07dbaeb743f91800d58a12c34d0b63b81a26aa725404af94af985fff9aff",
      "transactionType": "CALL",
      "contractName": null,
      "contractAddress": "0x4c84ebbcf4f4498345374304e58939544f7e73b9",
      "function": "transfer(address,uint256)",
      "arguments": [
        "0x7d227B4c2b05528Dcf993C0Fd2c631F82ecAC383",
        "1000000000000000000"
      ],
      "transaction": {
        "from": "0x46f2ea3853290e7ed4ebd5dc80cebcdf9697d6cb",
        "to": "0x4c84ebbcf4f4498345374304e58939544f7e73b9",
        "gas": "0x9ec8",
        "value": "0x0",
        "input": "0xa9059cbb0000000000000000000000007d227b4c2b05528dcf993c0fd2c631f82ecac3830000000000000000000000000000000000000000000000000de0b6b3a7640000",
        "nonce": "0xd",
        "chainId": "0xaa36a7"
      },
      "additionalContracts": [],
      "isFixedGasLimit": false
    },
    {
      "hash": "0x8dcc8a53a5a883f41c62a9a9a8061e359ac38db4d28bf09d8ae939df123fc844",
      "transactionType": "CALL",
      "contractName": null,
      "contractAddress": "0x7d227b4c2b05528dcf993c0fd2c631f82ecac383",
      "function": "sell(uint256)",
      "arguments": [
        "2"
      ],
      "transaction": {
        "from": "0x46f2ea3853290e7ed4ebd5dc80cebcdf9697d6cb",
        "to": "0x7d227b4c2b05528dcf993c0fd2c631f82ecac383",
        "gas": "0x143f5",
        "value": "0x0",
        "input": "0xe4849b320000000000000000000000000000000000000000000000000000000000000002",
        "nonce": "0xe",
        "chainId": "0xaa36a7"
      },
      "additionalContracts": [],
      "isFixedGasLimit": false
    },
    {
      "hash": "0x34034d73d2e9e1a0cceef8e681196a906c7c16fd8e0e6ee5ab4fcdc681336433",
      "transactionType": "CALL",
      "contractName": null,
      "contractAddress": "0xcead48ccd40d3f92072ebc6f200492b12456c92a",
      "function": "Complete(address)",
      "arguments": [
        "0x7d227B4c2b05528Dcf993C0Fd2c631F82ecAC383"
      ],
      "transaction": {
        "from": "0x46f2ea3853290e7ed4ebd5dc80cebcdf9697d6cb",
        "to": "0xcead48ccd40d3f92072ebc6f200492b12456c92a",
        "gas": "0x2ed38",
        "value": "0x0",
        "input": "0xe7e596000000000000000000000000007d227b4c2b05528dcf993c0fd2c631f82ecac383",
        "nonce": "0xf",
        "chainId": "0xaa36a7"
      },
      "additionalContracts": [],
      "isFixedGasLimit": false
    }
  ],
  "receipts": [
    {
      "status": "0x1",
      "cumulativeGasUsed": "0x81a0f7",
      "logs": [
        {
          "address": "0x4c84ebbcf4f4498345374304e58939544f7e73b9",
          "topics": [
            "0x8c5be1e5ebec7d5bd14f71427d1e84f3dd0314c0f7b2291e5b200ac8c7c3b925",
            "0x00000000000000000000000046f2ea3853290e7ed4ebd5dc80cebcdf9697d6cb",
            "0x00000000000000000000000046f2ea3853290e7ed4ebd5dc80cebcdf9697d6cb"
          ],
          "data": "0x0000000000000000000000000000000000000000000000000de0b6b3a7640000",
          "blockHash": "0xac3034f86289edb35b3ee481ea16daad69fbef5514b0cb6dd0c12dd44d1215ed",
          "blockNumber": "0x6a62b7",
          "transactionHash": "0xa4e42d1142d7c4d648cb4ea35cee0ce058bcf91d7527c53440a82f2a45749fe0",
          "transactionIndex": "0x2e",
          "logIndex": "0x24",
          "removed": false
        }
      ],
      "logsBloom": "0x00000000000000000000000000000000000000000000000000000000000000000000000000000000000000000000000000000000000000000000000000200000000000000000000000080000000000000000000000000000000000000000000000000000000000000000000000000000000000000000000000000000000000000000000000000000000000000000000000000000010000000000000000000000020000000000000000000000000000000000400000000000000000000000200000000000000000000000000000000000004001000000000000000000000000000010000000000000000000000000000000000000000000000000000000000000",
      "type": "0x2",
      "transactionHash": "0xa4e42d1142d7c4d648cb4ea35cee0ce058bcf91d7527c53440a82f2a45749fe0",
      "transactionIndex": "0x2e",
      "blockHash": "0xac3034f86289edb35b3ee481ea16daad69fbef5514b0cb6dd0c12dd44d1215ed",
      "blockNumber": "0x6a62b7",
      "gasUsed": "0xb462",
      "effectiveGasPrice": "0x64351b1f",
      "from": "0x46f2ea3853290e7ed4ebd5dc80cebcdf9697d6cb",
      "to": "0x4c84ebbcf4f4498345374304e58939544f7e73b9",
      "contractAddress": null
    },
    {
      "status": "0x1",
      "cumulativeGasUsed": "0x828511",
      "logs": [
        {
          "address": "0x4c84ebbcf4f4498345374304e58939544f7e73b9",
          "topics": [
            "0xddf252ad1be2c89b69c2b068fc378daa952ba7f163c4a11628f55a4df523b3ef",
            "0x00000000000000000000000046f2ea3853290e7ed4ebd5dc80cebcdf9697d6cb",
            "0x0000000000000000000000007d227b4c2b05528dcf993c0fd2c631f82ecac383"
          ],
          "data": "0x0000000000000000000000000000000000000000000000000000000000000000",
          "blockHash": "0xac3034f86289edb35b3ee481ea16daad69fbef5514b0cb6dd0c12dd44d1215ed",
          "blockNumber": "0x6a62b7",
          "transactionHash": "0x86e89dd4b544183d7613a9896baeea3dd308ef72a3af67c818e13ab81d07e3ba",
          "transactionIndex": "0x2f",
          "logIndex": "0x25",
          "removed": false
        }
      ],
      "logsBloom": "0x00000000000001000000000000000000000000000000000000000000000000000000000000000000000000000000000000000000000000000000000000000000000000000000000000080008000000000000000000000000000000000000000000000000000000000000000000000800000000000000000000000010000000000000000000000000000000000000000000000000010000000000000000000000000000000000000000000000000000000000400000000000000000000000200000000002000000000000000000000000004001000000000000020000000000000000000000000000000000000000000000000000000000000000000000000000",
      "type": "0x2",
      "transactionHash": "0x86e89dd4b544183d7613a9896baeea3dd308ef72a3af67c818e13ab81d07e3ba",
      "transactionIndex": "0x2f",
      "blockHash": "0xac3034f86289edb35b3ee481ea16daad69fbef5514b0cb6dd0c12dd44d1215ed",
      "blockNumber": "0x6a62b7",
      "gasUsed": "0xe41a",
      "effectiveGasPrice": "0x64351b1f",
      "from": "0x46f2ea3853290e7ed4ebd5dc80cebcdf9697d6cb",
      "to": "0x7d227b4c2b05528dcf993c0fd2c631f82ecac383",
      "contractAddress": null
    },
    {
      "status": "0x1",
      "cumulativeGasUsed": "0x82f806",
      "logs": [
        {
          "address": "0x4c84ebbcf4f4498345374304e58939544f7e73b9",
          "topics": [
            "0xddf252ad1be2c89b69c2b068fc378daa952ba7f163c4a11628f55a4df523b3ef",
            "0x00000000000000000000000046f2ea3853290e7ed4ebd5dc80cebcdf9697d6cb",
            "0x0000000000000000000000007d227b4c2b05528dcf993c0fd2c631f82ecac383"
          ],
          "data": "0x0000000000000000000000000000000000000000000000000de0b6b3a7640000",
          "blockHash": "0xac3034f86289edb35b3ee481ea16daad69fbef5514b0cb6dd0c12dd44d1215ed",
          "blockNumber": "0x6a62b7",
          "transactionHash": "0xa8db07dbaeb743f91800d58a12c34d0b63b81a26aa725404af94af985fff9aff",
          "transactionIndex": "0x30",
          "logIndex": "0x26",
          "removed": false
        }
      ],
      "logsBloom": "0x00000000000001000000000000000000000000000000000000000000000000000000000000000000000000000000000000000000000000000000000000000000000000000000000000080008000000000000000000000000000000000000000000000000000000000000000000000800000000000000000000000010000000000000000000000000000000000000000000000000010000000000000000000000000000000000000000000000000000000000400000000000000000000000200000000002000000000000000000000000004001000000000000020000000000000000000000000000000000000000000000000000000000000000000000000000",
      "type": "0x2",
      "transactionHash": "0xa8db07dbaeb743f91800d58a12c34d0b63b81a26aa725404af94af985fff9aff",
      "transactionIndex": "0x30",
      "blockHash": "0xac3034f86289edb35b3ee481ea16daad69fbef5514b0cb6dd0c12dd44d1215ed",
      "blockNumber": "0x6a62b7",
      "gasUsed": "0x72f5",
      "effectiveGasPrice": "0x64351b1f",
      "from": "0x46f2ea3853290e7ed4ebd5dc80cebcdf9697d6cb",
      "to": "0x4c84ebbcf4f4498345374304e58939544f7e73b9",
      "contractAddress": null
    },
    {
      "status": "0x1",
      "cumulativeGasUsed": "0x83d589",
      "logs": [
        {
          "address": "0x4c84ebbcf4f4498345374304e58939544f7e73b9",
          "topics": [
            "0xddf252ad1be2c89b69c2b068fc378daa952ba7f163c4a11628f55a4df523b3ef",
            "0x0000000000000000000000007d227b4c2b05528dcf993c0fd2c631f82ecac383",
            "0x00000000000000000000000046f2ea3853290e7ed4ebd5dc80cebcdf9697d6cb"
          ],
          "data": "0x0000000000000000000000000000000000000000000000001bc16d674ec80000",
          "blockHash": "0xac3034f86289edb35b3ee481ea16daad69fbef5514b0cb6dd0c12dd44d1215ed",
          "blockNumber": "0x6a62b7",
          "transactionHash": "0x8dcc8a53a5a883f41c62a9a9a8061e359ac38db4d28bf09d8ae939df123fc844",
          "transactionIndex": "0x31",
          "logIndex": "0x27",
          "removed": false
        }
      ],
      "logsBloom": "0x00000000000001000000000000000000000000000000000000000000000000000000000000000000000000000000000000000000000000000000000000000000000000000000000000080008000000000000000000000000000000000000000000000000000000000000000000000800000000000000000000000010000000000000000000000000000000000000000000000000010000000000000000000000000000000000000000000000000000000000400000000000000000000000200000000002000000000000000000000000004001000000000000020000000000000000000000000000000000000000000000000000000000000000000000000000",
      "type": "0x2",
      "transactionHash": "0x8dcc8a53a5a883f41c62a9a9a8061e359ac38db4d28bf09d8ae939df123fc844",
      "transactionIndex": "0x31",
      "blockHash": "0xac3034f86289edb35b3ee481ea16daad69fbef5514b0cb6dd0c12dd44d1215ed",
      "blockNumber": "0x6a62b7",
      "gasUsed": "0xdd83",
      "effectiveGasPrice": "0x64351b1f",
      "from": "0x46f2ea3853290e7ed4ebd5dc80cebcdf9697d6cb",
      "to": "0x7d227b4c2b05528dcf993c0fd2c631f82ecac383",
      "contractAddress": null
    },
    {
      "status": "0x1",
      "cumulativeGasUsed": "0x85f3f6",
      "logs": [],
      "logsBloom": "0x00000000000000000000000000000000000000000000000000000000000000000000000000000000000000000000000000000000000000000000000000000000000000000000000000000000000000000000000000000000000000000000000000000000000000000000000000000000000000000000000000000000000000000000000000000000000000000000000000000000000000000000000000000000000000000000000000000000000000000000000000000000000000000000000000000000000000000000000000000000000000000000000000000000000000000000000000000000000000000000000000000000000000000000000000000000",
      "type": "0x2",
      "transactionHash": "0x34034d73d2e9e1a0cceef8e681196a906c7c16fd8e0e6ee5ab4fcdc681336433",
      "transactionIndex": "0x32",
      "blockHash": "0xac3034f86289edb35b3ee481ea16daad69fbef5514b0cb6dd0c12dd44d1215ed",
      "blockNumber": "0x6a62b7",
      "gasUsed": "0x21e6d",
      "effectiveGasPrice": "0x64351b1f",
      "from": "0x46f2ea3853290e7ed4ebd5dc80cebcdf9697d6cb",
      "to": "0xcead48ccd40d3f92072ebc6f200492b12456c92a",
      "contractAddress": null
    }
  ],
  "libraries": [],
  "pending": [],
  "returns": {},
  "timestamp": 1730233505,
  "chain": 11155111,
  "commit": "6bc059b"
}